{
  "_format": "hh-sol-artifact-1",
  "contractName": "Auction",
  "sourceName": "contracts/Auction.sol",
  "abi": [
    {
      "inputs": [
        {
          "internalType": "address",
          "name": "_creator",
          "type": "address"
        },
        {
          "internalType": "uint256",
          "name": "_endTime",
          "type": "uint256"
        },
        {
          "internalType": "uint256",
          "name": "_minIncrement",
          "type": "uint256"
        },
        {
          "internalType": "uint256",
          "name": "_directBuyPrice",
          "type": "uint256"
        },
        {
          "internalType": "uint256",
          "name": "_startPrice",
          "type": "uint256"
        },
        {
          "internalType": "address",
          "name": "_nftAddress",
          "type": "address"
        },
        {
          "internalType": "uint256",
          "name": "_tokenId",
          "type": "uint256"
        }
      ],
      "stateMutability": "nonpayable",
      "type": "constructor"
    },
    {
      "anonymous": false,
      "inputs": [],
      "name": "AuctionCanceled",
      "type": "event"
    },
    {
      "anonymous": false,
      "inputs": [
        {
          "indexed": false,
          "internalType": "address",
          "name": "bidder",
          "type": "address"
        },
        {
          "indexed": false,
          "internalType": "uint256",
          "name": "bid",
          "type": "uint256"
        }
      ],
      "name": "NewBid",
      "type": "event"
    },
    {
      "anonymous": false,
      "inputs": [
        {
          "indexed": false,
          "internalType": "address",
          "name": "withdrawer",
          "type": "address"
        },
        {
          "indexed": false,
          "internalType": "uint256",
          "name": "amount",
          "type": "uint256"
        }
      ],
      "name": "WithdrawFunds",
      "type": "event"
    },
    {
      "anonymous": false,
      "inputs": [
        {
          "indexed": false,
          "internalType": "address",
          "name": "withdrawer",
          "type": "address"
        }
      ],
      "name": "WithdrawToken",
      "type": "event"
    },
    {
      "inputs": [],
      "name": "allBids",
      "outputs": [
        {
          "internalType": "address[]",
          "name": "",
          "type": "address[]"
        },
        {
          "internalType": "uint256[]",
          "name": "",
          "type": "uint256[]"
        }
      ],
      "stateMutability": "view",
      "type": "function"
    },
    {
      "inputs": [
        {
          "internalType": "uint256",
          "name": "",
          "type": "uint256"
        }
      ],
      "name": "bids",
      "outputs": [
        {
          "internalType": "address",
          "name": "sender",
          "type": "address"
        },
        {
          "internalType": "uint256",
          "name": "bid",
          "type": "uint256"
        }
      ],
      "stateMutability": "view",
      "type": "function"
    },
    {
      "inputs": [],
      "name": "cancelAuction",
      "outputs": [
        {
          "internalType": "bool",
          "name": "",
          "type": "bool"
        }
      ],
      "stateMutability": "nonpayable",
      "type": "function"
    },
    {
      "inputs": [],
      "name": "creator",
      "outputs": [
        {
          "internalType": "address",
          "name": "",
          "type": "address"
        }
      ],
      "stateMutability": "view",
      "type": "function"
    },
    {
      "inputs": [],
      "name": "directBuyPrice",
      "outputs": [
        {
          "internalType": "uint256",
          "name": "",
          "type": "uint256"
        }
      ],
      "stateMutability": "view",
      "type": "function"
    },
    {
      "inputs": [],
      "name": "endTime",
      "outputs": [
        {
          "internalType": "uint256",
          "name": "",
          "type": "uint256"
        }
      ],
      "stateMutability": "view",
      "type": "function"
    },
    {
      "inputs": [],
      "name": "getAuctionState",
      "outputs": [
        {
          "internalType": "enum Auction.AuctionState",
          "name": "",
          "type": "uint8"
        }
      ],
      "stateMutability": "view",
      "type": "function"
    },
    {
      "inputs": [],
      "name": "isCancelled",
      "outputs": [
        {
          "internalType": "bool",
          "name": "",
          "type": "bool"
        }
      ],
      "stateMutability": "view",
      "type": "function"
    },
    {
      "inputs": [],
      "name": "isDirectBuy",
      "outputs": [
        {
          "internalType": "bool",
          "name": "",
          "type": "bool"
        }
      ],
      "stateMutability": "view",
      "type": "function"
    },
    {
      "inputs": [],
      "name": "maxBid",
      "outputs": [
        {
          "internalType": "uint256",
          "name": "",
          "type": "uint256"
        }
      ],
      "stateMutability": "view",
      "type": "function"
    },
    {
      "inputs": [],
      "name": "maxBidder",
      "outputs": [
        {
          "internalType": "address",
          "name": "",
          "type": "address"
        }
      ],
      "stateMutability": "view",
      "type": "function"
    },
    {
      "inputs": [],
      "name": "minIncrement",
      "outputs": [
        {
          "internalType": "uint256",
          "name": "",
          "type": "uint256"
        }
      ],
      "stateMutability": "view",
      "type": "function"
    },
    {
      "inputs": [],
      "name": "nftAddress",
      "outputs": [
        {
          "internalType": "address",
          "name": "",
          "type": "address"
        }
      ],
      "stateMutability": "view",
      "type": "function"
    },
    {
      "inputs": [],
      "name": "placeBid",
      "outputs": [
        {
          "internalType": "bool",
          "name": "",
          "type": "bool"
        }
      ],
      "stateMutability": "payable",
      "type": "function"
    },
    {
      "inputs": [],
      "name": "startPrice",
      "outputs": [
        {
          "internalType": "uint256",
          "name": "",
          "type": "uint256"
        }
      ],
      "stateMutability": "view",
      "type": "function"
    },
    {
      "inputs": [],
      "name": "startTime",
      "outputs": [
        {
          "internalType": "uint256",
          "name": "",
          "type": "uint256"
        }
      ],
      "stateMutability": "view",
      "type": "function"
    },
    {
      "inputs": [],
      "name": "tokenId",
      "outputs": [
        {
          "internalType": "uint256",
          "name": "",
          "type": "uint256"
        }
      ],
      "stateMutability": "view",
      "type": "function"
    },
    {
      "inputs": [],
      "name": "withdrawFunds",
      "outputs": [
        {
          "internalType": "bool",
          "name": "",
          "type": "bool"
        }
      ],
      "stateMutability": "nonpayable",
      "type": "function"
    },
    {
      "inputs": [],
      "name": "withdrawToken",
      "outputs": [
        {
          "internalType": "bool",
          "name": "",
          "type": "bool"
        }
      ],
      "stateMutability": "nonpayable",
      "type": "function"
    }
  ],
  "bytecode": "0x608060405234801561001057600080fd5b50604051610cb0380380610cb083398101604081905261002f916100cf565b600480546001600160a01b0319166001600160a01b0389161790556100548642610131565b60005542600155600894909455600992909255600a55600c80546001600160a01b03199081166001600160a01b03938416908117909255600b805482169092179091556006929092556003805490921693169290921790915550610155565b80516001600160a01b03811681146100ca57600080fd5b919050565b600080600080600080600060e0888a0312156100e9578283fd5b6100f2886100b3565b96506020880151955060408801519450606088015193506080880151925061011c60a089016100b3565b915060c0880151905092959891949750929550565b6000821982111561015057634e487b7160e01b81526011600452602481fd5b500190565b610b4c806101646000396000f3fe6080604052600436106101145760003560e01c806374b11d8a116100a0578063b5bc959111610064578063b5bc9591146102e0578063ca628c7814610300578063ecfc7ecc14610315578063f1a9af891461031d578063f9381d531461033357600080fd5b806374b11d8a1461026f57806378e97925146102855780638afcb14d1461029b5780638fa8b790146102b157806395ee1221146102c657600080fd5b80633197cbb6116100e75780633197cbb6146101c15780634423c5f1146101d75780634f50ef53146102165780635bf8633a14610239578063700cdab11461025957600080fd5b806302d05d3f1461011957806308bfc3001461015657806317d70f7c1461017857806324600fc31461019c575b600080fd5b34801561012557600080fd5b50600454610139906001600160a01b031681565b6040516001600160a01b0390911681526020015b60405180910390f35b34801561016257600080fd5b5061016b610352565b60405161014d9190610aa5565b34801561018457600080fd5b5061018e60065481565b60405190815260200161014d565b3480156101a857600080fd5b506101b1610391565b604051901515815260200161014d565b3480156101cd57600080fd5b5061018e60005481565b3480156101e357600080fd5b506101f76101f2366004610a0a565b61044f565b604080516001600160a01b03909316835260208301919091520161014d565b34801561022257600080fd5b5061022b610487565b60405161014d929190610a22565b34801561024557600080fd5b50600b54610139906001600160a01b031681565b34801561026557600080fd5b5061018e60095481565b34801561027b57600080fd5b5061018e60025481565b34801561029157600080fd5b5061018e60015481565b3480156102a757600080fd5b5061018e60085481565b3480156102bd57600080fd5b506101b1610644565b3480156102d257600080fd5b506007546101b19060ff1681565b3480156102ec57600080fd5b50600354610139906001600160a01b031681565b34801561030c57600080fd5b506101b161074d565b6101b161087a565b34801561032957600080fd5b5061018e600a5481565b34801561033f57600080fd5b506007546101b190610100900460ff1681565b60075460009060ff16156103665750600190565b600754610100900460ff161561037c5750600390565b600054421061038b5750600290565b50600090565b6000600261039d610352565b60038111156103bc57634e487b7160e01b600052602160045260246000fd5b14806103ee575060036103cd610352565b60038111156103ec57634e487b7160e01b600052602160045260246000fd5b145b6103f757600080fd5b6004546001600160a01b0316331461040e57600080fd5b6002546040805133815260208101929092527f21901fa892c430ea8bd38b9390225ac8e67eac75ee10ffba16feefc539a288f991015b60405180910390a190565b6005818154811061045f57600080fd5b6000918252602090912060029091020180546001909101546001600160a01b03909116915082565b606080600060058054905067ffffffffffffffff8111156104b857634e487b7160e01b600052604160045260246000fd5b6040519080825280602002602001820160405280156104e1578160200160208202803683370190505b5060055490915060009067ffffffffffffffff81111561051157634e487b7160e01b600052604160045260246000fd5b60405190808252806020026020018201604052801561053a578160200160208202803683370190505b50905060005b60055481101561063a576005818154811061056b57634e487b7160e01b600052603260045260246000fd5b600091825260209091206002909102015483516001600160a01b03909116908490839081106105aa57634e487b7160e01b600052603260045260246000fd5b60200260200101906001600160a01b031690816001600160a01b031681525050600581815481106105eb57634e487b7160e01b600052603260045260246000fd5b90600052602060002090600202016001015482828151811061061d57634e487b7160e01b600052603260045260246000fd5b60209081029190910101528061063281610ae5565b915050610540565b5090939092509050565b6004546000906001600160a01b0316331461065e57600080fd5b6000610668610352565b600381111561068757634e487b7160e01b600052602160045260246000fd5b1461069157600080fd5b6002541561069e57600080fd5b6007805460ff19166001179055600c54600480546006546040516323b872dd60e01b815230938101939093526001600160a01b0391821660248401526044830152909116906323b872dd90606401600060405180830381600087803b15801561070657600080fd5b505af115801561071a573d6000803e3d6000fd5b50506040517f3edab9d02702b82c68bc3a966d302af41abe4f3d8e2408b27b94e5f9bf2d722c925060009150a150600190565b60006002610759610352565b600381111561077857634e487b7160e01b600052602160045260246000fd5b14806107aa57506003610789610352565b60038111156107a857634e487b7160e01b600052602160045260246000fd5b145b6107b357600080fd5b6003546001600160a01b031633146107ca57600080fd5b600c546003546006546040516323b872dd60e01b81523060048201526001600160a01b03928316602482015260448101919091529116906323b872dd90606401600060405180830381600087803b15801561082457600080fd5b505af1158015610838573d6000803e3d6000fd5b50506003546040516001600160a01b0390911681527f5c4c9f6f3ba19404ec4644b1234fc02b326f96e961a2d4e4667694441444f34592506020019050610444565b6004546000906001600160a01b031633141561089557600080fd5b600061089f610352565b60038111156108be57634e487b7160e01b600052602160045260246000fd5b146108c857600080fd5b600a5434116108d657600080fd5b6008546002546108e69190610acd565b34116108f157600080fd5b600380546002805434918290556001600160a01b0319831633179093556009546001600160a01b03909216929111610933576007805461ff0019166101001790555b604080518082018252338082523460208084018281526005805460018101825560009190915294517f036b6384b5eca791c62761152d0c79bb0604c104a5fb6f4eb0703f3154bb3db0600290960295860180546001600160a01b0319166001600160a01b03909216919091179055517f036b6384b5eca791c62761152d0c79bb0604c104a5fb6f4eb0703f3154bb3db1909401939093558351918252918101919091527fdd0b6c6a77960e2066c96171b4d7ac9e8b4c184011f38544afa36a5bb63ec59f910160405180910390a160019250505090565b600060208284031215610a1b578081fd5b5035919050565b604080825283519082018190526000906020906060840190828701845b82811015610a645781516001600160a01b031684529284019290840190600101610a3f565b50505083810382850152845180825285830191830190845b81811015610a9857835183529284019291840191600101610a7c565b5090979650505050505050565b6020810160048310610ac757634e487b7160e01b600052602160045260246000fd5b91905290565b60008219821115610ae057610ae0610b00565b500190565b6000600019821415610af957610af9610b00565b5060010190565b634e487b7160e01b600052601160045260246000fdfea26469706673582212200acb4c107747224a37d1a921777ca7ed8b5dab429e8c179bbd55b11d4d15b12064736f6c63430008040033",
  "linkReferences": {},
  "deployedLinkReferences": {}
}