{
  "_format": "hh-sol-artifact-1",
  "contractName": "AuctionManager",
  "sourceName": "contracts/AuctionManager.sol",
  "abi": [
    {
      "inputs": [
        {
          "internalType": "uint256",
          "name": "",
          "type": "uint256"
        }
      ],
      "name": "auctions",
      "outputs": [
        {
          "internalType": "contract Auction",
          "name": "",
          "type": "address"
        }
      ],
      "stateMutability": "view",
      "type": "function"
    },
    {
      "inputs": [
        {
          "internalType": "uint256",
          "name": "_endTime",
          "type": "uint256"
        },
        {
          "internalType": "uint256",
          "name": "_minIncrement",
          "type": "uint256"
        },
        {
          "internalType": "uint256",
          "name": "_directBuyPrice",
          "type": "uint256"
        },
        {
          "internalType": "uint256",
          "name": "_startPrice",
          "type": "uint256"
        },
        {
          "internalType": "address",
          "name": "_nftAddress",
          "type": "address"
        },
        {
          "internalType": "uint256",
          "name": "_tokenId",
          "type": "uint256"
        }
      ],
      "name": "createAuction",
      "outputs": [
        {
          "internalType": "bool",
          "name": "",
          "type": "bool"
        }
      ],
      "stateMutability": "nonpayable",
      "type": "function"
    },
    {
      "inputs": [
        {
          "internalType": "address[]",
          "name": "_auctionsList",
          "type": "address[]"
        }
      ],
      "name": "getAuctionInfo",
      "outputs": [
        {
          "internalType": "uint256[]",
          "name": "directBuy",
          "type": "uint256[]"
        },
        {
          "internalType": "address[]",
          "name": "owner",
          "type": "address[]"
        },
        {
          "internalType": "uint256[]",
          "name": "highestBid",
          "type": "uint256[]"
        },
        {
          "internalType": "uint256[]",
          "name": "tokenIds",
          "type": "uint256[]"
        },
        {
          "internalType": "uint256[]",
          "name": "endTime",
          "type": "uint256[]"
        },
        {
          "internalType": "uint256[]",
          "name": "startPrice",
          "type": "uint256[]"
        },
        {
          "internalType": "uint256[]",
          "name": "auctionState",
          "type": "uint256[]"
        }
      ],
      "stateMutability": "view",
      "type": "function"
    },
    {
      "inputs": [],
      "name": "getAuctions",
      "outputs": [
        {
          "internalType": "address[]",
          "name": "_auctions",
          "type": "address[]"
        }
      ],
      "stateMutability": "view",
      "type": "function"
    }
  ],
  "bytecode": "0x608060405234801561001057600080fd5b50611a14806100206000396000f3fe608060405234801561001057600080fd5b506004361061004c5760003560e01c8063280126061461005157806331adcedc14610079578063571a26a01461009f578063d7c06919146100e0575b600080fd5b61006461005f366004610b7f565b6100f5565b60405190151581526020015b60405180910390f35b61008c610087366004610ac0565b61024a565b6040516100709796959493929190610c58565b6100c86100ad366004610b4f565b6001602052600090815260409020546001600160a01b031681565b6040516001600160a01b039091168152602001610070565b6100e86109c1565b6040516100709190610c45565b600080851161010357600080fd5b84841061010f57600080fd5b61012c871161011d57600080fd5b600080549081908061012e83610cef565b919050555060003389898989898960405161014890610a90565b6001600160a01b039788168152602081019690965260408601949094526060850192909252608084015290921660a082015260c081019190915260e001604051809103906000f0801580156101a1573d6000803e3d6000fd5b506040516323b872dd60e01b81523360048201526001600160a01b0380831660248301526044820187905291925086918216906323b872dd90606401600060405180830381600087803b1580156101f757600080fd5b505af115801561020b573d6000803e3d6000fd5b5050506000938452505060016020819052604090922080546001600160a01b0319166001600160a01b0392909216919091179055979650505050505050565b60608080808080808767ffffffffffffffff81111561027957634e487b7160e01b600052604160045260246000fd5b6040519080825280602002602001820160405280156102a2578160200160208202803683370190505b5096508767ffffffffffffffff8111156102cc57634e487b7160e01b600052604160045260246000fd5b6040519080825280602002602001820160405280156102f5578160200160208202803683370190505b5095508767ffffffffffffffff81111561031f57634e487b7160e01b600052604160045260246000fd5b604051908082528060200260200182016040528015610348578160200160208202803683370190505b5094508767ffffffffffffffff81111561037257634e487b7160e01b600052604160045260246000fd5b60405190808252806020026020018201604052801561039b578160200160208202803683370190505b5093508767ffffffffffffffff8111156103c557634e487b7160e01b600052604160045260246000fd5b6040519080825280602002602001820160405280156103ee578160200160208202803683370190505b5092508767ffffffffffffffff81111561041857634e487b7160e01b600052604160045260246000fd5b604051908082528060200260200182016040528015610441578160200160208202803683370190505b5091508767ffffffffffffffff81111561046b57634e487b7160e01b600052604160045260246000fd5b604051908082528060200260200182016040528015610494578160200160208202803683370190505b50905060005b888110156109b45760008181526001602090815260409182902054825163700cdab160e01b815292516001600160a01b039091169263700cdab1926004808301939192829003018186803b1580156104f157600080fd5b505afa158015610505573d6000803e3d6000fd5b505050506040513d601f19601f820116820180604052508101906105299190610b67565b88828151811061054957634e487b7160e01b600052603260045260246000fd5b6020908102919091018101919091526000828152600182526040908190205481516302d05d3f60e01b815291516001600160a01b03909116926302d05d3f9260048082019391829003018186803b1580156105a357600080fd5b505afa1580156105b7573d6000803e3d6000fd5b505050506040513d601f19601f820116820180604052508101906105db9190610a9d565b8782815181106105fb57634e487b7160e01b600052603260045260246000fd5b6001600160a01b03928316602091820292909201810191909152600083815260018252604090819020548151633a588ec560e11b815291519316926374b11d8a92600480840193919291829003018186803b15801561065957600080fd5b505afa15801561066d573d6000803e3d6000fd5b505050506040513d601f19601f820116820180604052508101906106919190610b67565b8682815181106106b157634e487b7160e01b600052603260045260246000fd5b6020908102919091018101919091526000828152600182526040908190205481516305f5c3df60e21b815291516001600160a01b03909116926317d70f7c9260048082019391829003018186803b15801561070b57600080fd5b505afa15801561071f573d6000803e3d6000fd5b505050506040513d601f19601f820116820180604052508101906107439190610b67565b85828151811061076357634e487b7160e01b600052603260045260246000fd5b6020908102919091018101919091526000828152600182526040908190205481516318cbe5db60e11b815291516001600160a01b0390911692633197cbb69260048082019391829003018186803b1580156107bd57600080fd5b505afa1580156107d1573d6000803e3d6000fd5b505050506040513d601f19601f820116820180604052508101906107f59190610b67565b84828151811061081557634e487b7160e01b600052603260045260246000fd5b60209081029190910181019190915260008281526001825260409081902054815163f1a9af8960e01b815291516001600160a01b039091169263f1a9af899260048082019391829003018186803b15801561086f57600080fd5b505afa158015610883573d6000803e3d6000fd5b505050506040513d601f19601f820116820180604052508101906108a79190610b67565b8382815181106108c757634e487b7160e01b600052603260045260246000fd5b6020908102919091018101919091526000828152600182526040908190205481516208bfc360e81b815291516001600160a01b03909116926308bfc3009260048082019391829003018186803b15801561092057600080fd5b505afa158015610934573d6000803e3d6000fd5b505050506040513d601f19601f820116820180604052508101906109589190610b30565b600381111561097757634e487b7160e01b600052602160045260246000fd5b82828151811061099757634e487b7160e01b600052603260045260246000fd5b6020908102919091010152806109ac81610cef565b91505061049a565b5092959891949750929550565b606060005467ffffffffffffffff8111156109ec57634e487b7160e01b600052604160045260246000fd5b604051908082528060200260200182016040528015610a15578160200160208202803683370190505b50905060005b600054811015610a8c5760008181526001602052604090205482516001600160a01b0390911690839083908110610a6257634e487b7160e01b600052603260045260246000fd5b6001600160a01b039092166020928302919091019091015280610a8481610cef565b915050610a1b565b5090565b610cb080610d2f83390190565b600060208284031215610aae578081fd5b8151610ab981610d16565b9392505050565b60008060208385031215610ad2578081fd5b823567ffffffffffffffff80821115610ae9578283fd5b818501915085601f830112610afc578283fd5b813581811115610b0a578384fd5b8660208260051b8501011115610b1e578384fd5b60209290920196919550909350505050565b600060208284031215610b41578081fd5b815160048110610ab9578182fd5b600060208284031215610b60578081fd5b5035919050565b600060208284031215610b78578081fd5b5051919050565b60008060008060008060c08789031215610b97578182fd5b863595506020870135945060408701359350606087013592506080870135610bbe81610d16565b8092505060a087013590509295509295509295565b6000815180845260208085019450808401835b83811015610c0b5781516001600160a01b031687529582019590820190600101610be6565b509495945050505050565b6000815180845260208085019450808401835b83811015610c0b57815187529582019590820190600101610c29565b602081526000610ab96020830184610bd3565b60e081526000610c6b60e083018a610c16565b8281036020840152610c7d818a610bd3565b90508281036040840152610c918189610c16565b90508281036060840152610ca58188610c16565b90508281036080840152610cb98187610c16565b905082810360a0840152610ccd8186610c16565b905082810360c0840152610ce18185610c16565b9a9950505050505050505050565b6000600019821415610d0f57634e487b7160e01b81526011600452602481fd5b5060010190565b6001600160a01b0381168114610d2b57600080fd5b5056fe608060405234801561001057600080fd5b50604051610cb0380380610cb083398101604081905261002f916100cf565b600480546001600160a01b0319166001600160a01b0389161790556100548642610131565b60005542600155600894909455600992909255600a55600c80546001600160a01b03199081166001600160a01b03938416908117909255600b805482169092179091556006929092556003805490921693169290921790915550610155565b80516001600160a01b03811681146100ca57600080fd5b919050565b600080600080600080600060e0888a0312156100e9578283fd5b6100f2886100b3565b96506020880151955060408801519450606088015193506080880151925061011c60a089016100b3565b915060c0880151905092959891949750929550565b6000821982111561015057634e487b7160e01b81526011600452602481fd5b500190565b610b4c806101646000396000f3fe6080604052600436106101145760003560e01c806374b11d8a116100a0578063b5bc959111610064578063b5bc9591146102e0578063ca628c7814610300578063ecfc7ecc14610315578063f1a9af891461031d578063f9381d531461033357600080fd5b806374b11d8a1461026f57806378e97925146102855780638afcb14d1461029b5780638fa8b790146102b157806395ee1221146102c657600080fd5b80633197cbb6116100e75780633197cbb6146101c15780634423c5f1146101d75780634f50ef53146102165780635bf8633a14610239578063700cdab11461025957600080fd5b806302d05d3f1461011957806308bfc3001461015657806317d70f7c1461017857806324600fc31461019c575b600080fd5b34801561012557600080fd5b50600454610139906001600160a01b031681565b6040516001600160a01b0390911681526020015b60405180910390f35b34801561016257600080fd5b5061016b610352565b60405161014d9190610aa5565b34801561018457600080fd5b5061018e60065481565b60405190815260200161014d565b3480156101a857600080fd5b506101b1610391565b604051901515815260200161014d565b3480156101cd57600080fd5b5061018e60005481565b3480156101e357600080fd5b506101f76101f2366004610a0a565b61044f565b604080516001600160a01b03909316835260208301919091520161014d565b34801561022257600080fd5b5061022b610487565b60405161014d929190610a22565b34801561024557600080fd5b50600b54610139906001600160a01b031681565b34801561026557600080fd5b5061018e60095481565b34801561027b57600080fd5b5061018e60025481565b34801561029157600080fd5b5061018e60015481565b3480156102a757600080fd5b5061018e60085481565b3480156102bd57600080fd5b506101b1610644565b3480156102d257600080fd5b506007546101b19060ff1681565b3480156102ec57600080fd5b50600354610139906001600160a01b031681565b34801561030c57600080fd5b506101b161074d565b6101b161087a565b34801561032957600080fd5b5061018e600a5481565b34801561033f57600080fd5b506007546101b190610100900460ff1681565b60075460009060ff16156103665750600190565b600754610100900460ff161561037c5750600390565b600054421061038b5750600290565b50600090565b6000600261039d610352565b60038111156103bc57634e487b7160e01b600052602160045260246000fd5b14806103ee575060036103cd610352565b60038111156103ec57634e487b7160e01b600052602160045260246000fd5b145b6103f757600080fd5b6004546001600160a01b0316331461040e57600080fd5b6002546040805133815260208101929092527f21901fa892c430ea8bd38b9390225ac8e67eac75ee10ffba16feefc539a288f991015b60405180910390a190565b6005818154811061045f57600080fd5b6000918252602090912060029091020180546001909101546001600160a01b03909116915082565b606080600060058054905067ffffffffffffffff8111156104b857634e487b7160e01b600052604160045260246000fd5b6040519080825280602002602001820160405280156104e1578160200160208202803683370190505b5060055490915060009067ffffffffffffffff81111561051157634e487b7160e01b600052604160045260246000fd5b60405190808252806020026020018201604052801561053a578160200160208202803683370190505b50905060005b60055481101561063a576005818154811061056b57634e487b7160e01b600052603260045260246000fd5b600091825260209091206002909102015483516001600160a01b03909116908490839081106105aa57634e487b7160e01b600052603260045260246000fd5b60200260200101906001600160a01b031690816001600160a01b031681525050600581815481106105eb57634e487b7160e01b600052603260045260246000fd5b90600052602060002090600202016001015482828151811061061d57634e487b7160e01b600052603260045260246000fd5b60209081029190910101528061063281610ae5565b915050610540565b5090939092509050565b6004546000906001600160a01b0316331461065e57600080fd5b6000610668610352565b600381111561068757634e487b7160e01b600052602160045260246000fd5b1461069157600080fd5b6002541561069e57600080fd5b6007805460ff19166001179055600c54600480546006546040516323b872dd60e01b815230938101939093526001600160a01b0391821660248401526044830152909116906323b872dd90606401600060405180830381600087803b15801561070657600080fd5b505af115801561071a573d6000803e3d6000fd5b50506040517f3edab9d02702b82c68bc3a966d302af41abe4f3d8e2408b27b94e5f9bf2d722c925060009150a150600190565b60006002610759610352565b600381111561077857634e487b7160e01b600052602160045260246000fd5b14806107aa57506003610789610352565b60038111156107a857634e487b7160e01b600052602160045260246000fd5b145b6107b357600080fd5b6003546001600160a01b031633146107ca57600080fd5b600c546003546006546040516323b872dd60e01b81523060048201526001600160a01b03928316602482015260448101919091529116906323b872dd90606401600060405180830381600087803b15801561082457600080fd5b505af1158015610838573d6000803e3d6000fd5b50506003546040516001600160a01b0390911681527f5c4c9f6f3ba19404ec4644b1234fc02b326f96e961a2d4e4667694441444f34592506020019050610444565b6004546000906001600160a01b031633141561089557600080fd5b600061089f610352565b60038111156108be57634e487b7160e01b600052602160045260246000fd5b146108c857600080fd5b600a5434116108d657600080fd5b6008546002546108e69190610acd565b34116108f157600080fd5b600380546002805434918290556001600160a01b0319831633179093556009546001600160a01b03909216929111610933576007805461ff0019166101001790555b604080518082018252338082523460208084018281526005805460018101825560009190915294517f036b6384b5eca791c62761152d0c79bb0604c104a5fb6f4eb0703f3154bb3db0600290960295860180546001600160a01b0319166001600160a01b03909216919091179055517f036b6384b5eca791c62761152d0c79bb0604c104a5fb6f4eb0703f3154bb3db1909401939093558351918252918101919091527fdd0b6c6a77960e2066c96171b4d7ac9e8b4c184011f38544afa36a5bb63ec59f910160405180910390a160019250505090565b600060208284031215610a1b578081fd5b5035919050565b604080825283519082018190526000906020906060840190828701845b82811015610a645781516001600160a01b031684529284019290840190600101610a3f565b50505083810382850152845180825285830191830190845b81811015610a9857835183529284019291840191600101610a7c565b5090979650505050505050565b6020810160048310610ac757634e487b7160e01b600052602160045260246000fd5b91905290565b60008219821115610ae057610ae0610b00565b500190565b6000600019821415610af957610af9610b00565b5060010190565b634e487b7160e01b600052601160045260246000fdfea26469706673582212200acb4c107747224a37d1a921777ca7ed8b5dab429e8c179bbd55b11d4d15b12064736f6c63430008040033a2646970667358221220b29f5fb7530899fecb78ba3adc05ab2e98671a67e012ec6c71286a877904d79e64736f6c63430008040033",
  "linkReferences": {},
  "deployedLinkReferences": {}
}