{
  "_format": "hh-sol-artifact-1",
  "contractName": "NFT",
  "sourceName": "contracts/NFT.sol",
  "abi": [
    {
      "inputs": [],
      "stateMutability": "nonpayable",
      "type": "constructor"
    },
    {
      "anonymous": false,
      "inputs": [
        {
          "indexed": true,
          "internalType": "address",
          "name": "owner",
          "type": "address"
        },
        {
          "indexed": true,
          "internalType": "address",
          "name": "approved",
          "type": "address"
        },
        {
          "indexed": true,
          "internalType": "uint256",
          "name": "tokenId",
          "type": "uint256"
        }
      ],
      "name": "Approval",
      "type": "event"
    },
    {
      "anonymous": false,
      "inputs": [
        {
          "indexed": true,
          "internalType": "address",
          "name": "owner",
          "type": "address"
        },
        {
          "indexed": true,
          "internalType": "address",
          "name": "operator",
          "type": "address"
        },
        {
          "indexed": false,
          "internalType": "bool",
          "name": "approved",
          "type": "bool"
        }
      ],
      "name": "ApprovalForAll",
      "type": "event"
    },
    {
      "anonymous": false,
      "inputs": [
        {
          "indexed": true,
          "internalType": "address",
          "name": "from",
          "type": "address"
        },
        {
          "indexed": true,
          "internalType": "address",
          "name": "to",
          "type": "address"
        },
        {
          "indexed": true,
          "internalType": "uint256",
          "name": "tokenId",
          "type": "uint256"
        }
      ],
      "name": "Transfer",
      "type": "event"
    },
    {
      "inputs": [
        {
          "internalType": "address",
          "name": "to",
          "type": "address"
        },
        {
          "internalType": "uint256",
          "name": "tokenId",
          "type": "uint256"
        }
      ],
      "name": "approve",
      "outputs": [],
      "stateMutability": "nonpayable",
      "type": "function"
    },
    {
      "inputs": [
        {
          "internalType": "address",
          "name": "owner",
          "type": "address"
        }
      ],
      "name": "balanceOf",
      "outputs": [
        {
          "internalType": "uint256",
          "name": "",
          "type": "uint256"
        }
      ],
      "stateMutability": "view",
      "type": "function"
    },
    {
      "inputs": [
        {
          "internalType": "uint256",
          "name": "tokenId",
          "type": "uint256"
        }
      ],
      "name": "getApproved",
      "outputs": [
        {
          "internalType": "address",
          "name": "",
          "type": "address"
        }
      ],
      "stateMutability": "view",
      "type": "function"
    },
    {
      "inputs": [],
      "name": "getItem",
      "outputs": [
        {
          "internalType": "uint256",
          "name": "",
          "type": "uint256"
        }
      ],
      "stateMutability": "payable",
      "type": "function"
    },
    {
      "inputs": [
        {
          "internalType": "address",
          "name": "owner",
          "type": "address"
        },
        {
          "internalType": "address",
          "name": "operator",
          "type": "address"
        }
      ],
      "name": "isApprovedForAll",
      "outputs": [
        {
          "internalType": "bool",
          "name": "",
          "type": "bool"
        }
      ],
      "stateMutability": "view",
      "type": "function"
    },
    {
      "inputs": [
        {
          "internalType": "uint256",
          "name": "",
          "type": "uint256"
        }
      ],
      "name": "itemValue",
      "outputs": [
        {
          "internalType": "uint256",
          "name": "",
          "type": "uint256"
        }
      ],
      "stateMutability": "view",
      "type": "function"
    },
    {
      "inputs": [],
      "name": "myItems",
      "outputs": [
        {
          "internalType": "uint256[]",
          "name": "items",
          "type": "uint256[]"
        }
      ],
      "stateMutability": "view",
      "type": "function"
    },
    {
      "inputs": [],
      "name": "name",
      "outputs": [
        {
          "internalType": "string",
          "name": "",
          "type": "string"
        }
      ],
      "stateMutability": "view",
      "type": "function"
    },
    {
      "inputs": [
        {
          "internalType": "uint256",
          "name": "tokenId",
          "type": "uint256"
        }
      ],
      "name": "ownerOf",
      "outputs": [
        {
          "internalType": "address",
          "name": "",
          "type": "address"
        }
      ],
      "stateMutability": "view",
      "type": "function"
    },
    {
      "inputs": [
        {
          "internalType": "address",
          "name": "from",
          "type": "address"
        },
        {
          "internalType": "address",
          "name": "to",
          "type": "address"
        },
        {
          "internalType": "uint256",
          "name": "tokenId",
          "type": "uint256"
        }
      ],
      "name": "safeTransferFrom",
      "outputs": [],
      "stateMutability": "nonpayable",
      "type": "function"
    },
    {
      "inputs": [
        {
          "internalType": "address",
          "name": "from",
          "type": "address"
        },
        {
          "internalType": "address",
          "name": "to",
          "type": "address"
        },
        {
          "internalType": "uint256",
          "name": "tokenId",
          "type": "uint256"
        },
        {
          "internalType": "bytes",
          "name": "_data",
          "type": "bytes"
        }
      ],
      "name": "safeTransferFrom",
      "outputs": [],
      "stateMutability": "nonpayable",
      "type": "function"
    },
    {
      "inputs": [
        {
          "internalType": "address",
          "name": "operator",
          "type": "address"
        },
        {
          "internalType": "bool",
          "name": "approved",
          "type": "bool"
        }
      ],
      "name": "setApprovalForAll",
      "outputs": [],
      "stateMutability": "nonpayable",
      "type": "function"
    },
    {
      "inputs": [
        {
          "internalType": "bytes4",
          "name": "interfaceId",
          "type": "bytes4"
        }
      ],
      "name": "supportsInterface",
      "outputs": [
        {
          "internalType": "bool",
          "name": "",
          "type": "bool"
        }
      ],
      "stateMutability": "view",
      "type": "function"
    },
    {
      "inputs": [],
      "name": "symbol",
      "outputs": [
        {
          "internalType": "string",
          "name": "",
          "type": "string"
        }
      ],
      "stateMutability": "view",
      "type": "function"
    },
    {
      "inputs": [
        {
          "internalType": "uint256",
          "name": "tokenId",
          "type": "uint256"
        }
      ],
      "name": "tokenURI",
      "outputs": [
        {
          "internalType": "string",
          "name": "",
          "type": "string"
        }
      ],
      "stateMutability": "view",
      "type": "function"
    },
    {
      "inputs": [
        {
          "internalType": "address",
          "name": "from",
          "type": "address"
        },
        {
          "internalType": "address",
          "name": "to",
          "type": "address"
        },
        {
          "internalType": "uint256",
          "name": "tokenId",
          "type": "uint256"
        }
      ],
      "name": "transferFrom",
      "outputs": [],
      "stateMutability": "nonpayable",
      "type": "function"
    }
  ],
  "bytecode": "0x60806040526127106008553480156200001757600080fd5b50604080518082018252600981526814dd5c195c8813919560ba1b60208083019182528351808501909452600684526514d41493919560d21b908401528151919291620000679160009162000086565b5080516200007d90600190602084019062000086565b50505062000169565b82805462000094906200012c565b90600052602060002090601f016020900481019282620000b8576000855562000103565b82601f10620000d357805160ff191683800117855562000103565b8280016001018555821562000103579182015b8281111562000103578251825591602001919060010190620000e6565b506200011192915062000115565b5090565b5b8082111562000111576000815560010162000116565b600181811c908216806200014157607f821691505b602082108114156200016357634e487b7160e01b600052602260045260246000fd5b50919050565b61166880620001796000396000f3fe6080604052600436106100f35760003560e01c80636352211e1161008a578063b88d4fde11610059578063b88d4fde146102bb578063c412eaba146102db578063c87b56dd146102e3578063e985e9c51461030357600080fd5b80636352211e1461024657806370a082311461026657806395d89b4114610286578063a22cb4651461029b57600080fd5b806310dd7a4c116100c657806310dd7a4c146101a9578063221c77b8146101cb57806323b872dd1461020657806342842e0e1461022657600080fd5b806301ffc9a7146100f857806306fdde031461012d578063081812fc1461014f578063095ea7b314610187575b600080fd5b34801561010457600080fd5b5061011861011336600461131c565b61034c565b60405190151581526020015b60405180910390f35b34801561013957600080fd5b5061014261039e565b6040516101249190611448565b34801561015b57600080fd5b5061016f61016a366004611354565b610430565b6040516001600160a01b039091168152602001610124565b34801561019357600080fd5b506101a76101a23660046112f3565b6104ca565b005b3480156101b557600080fd5b506101be6105e0565b6040516101249190611404565b3480156101d757600080fd5b506101f86101e6366004611354565b60076020526000908152604090205481565b604051908152602001610124565b34801561021257600080fd5b506101a76102213660046111a9565b6106b6565b34801561023257600080fd5b506101a76102413660046111a9565b6106e7565b34801561025257600080fd5b5061016f610261366004611354565b610702565b34801561027257600080fd5b506101f861028136600461115d565b610779565b34801561029257600080fd5b50610142610800565b3480156102a757600080fd5b506101a76102b63660046112b9565b61080f565b3480156102c757600080fd5b506101a76102d63660046111e4565b61081e565b6101f8610856565b3480156102ef57600080fd5b506101426102fe366004611354565b6108ed565b34801561030f57600080fd5b5061011861031e366004611177565b6001600160a01b03918216600090815260056020908152604080832093909416825291909152205460ff1690565b60006001600160e01b031982166380ac58cd60e01b148061037d57506001600160e01b03198216635b5e139f60e01b145b8061039857506301ffc9a760e01b6001600160e01b03198316145b92915050565b6060600080546103ad9061156d565b80601f01602080910402602001604051908101604052809291908181526020018280546103d99061156d565b80156104265780601f106103fb57610100808354040283529160200191610426565b820191906000526020600020905b81548152906001019060200180831161040957829003601f168201915b5050505050905090565b6000818152600260205260408120546001600160a01b03166104ae5760405162461bcd60e51b815260206004820152602c60248201527f4552433732313a20617070726f76656420717565727920666f72206e6f6e657860448201526b34b9ba32b73a103a37b5b2b760a11b60648201526084015b60405180910390fd5b506000908152600460205260409020546001600160a01b031690565b60006104d582610702565b9050806001600160a01b0316836001600160a01b031614156105435760405162461bcd60e51b815260206004820152602160248201527f4552433732313a20617070726f76616c20746f2063757272656e74206f776e656044820152603960f91b60648201526084016104a5565b336001600160a01b038216148061055f575061055f813361031e565b6105d15760405162461bcd60e51b815260206004820152603860248201527f4552433732313a20617070726f76652063616c6c6572206973206e6f74206f7760448201527f6e6572206e6f7220617070726f76656420666f7220616c6c000000000000000060648201526084016104a5565b6105db83836109d5565b505050565b60606105eb33610779565b67ffffffffffffffff81111561061157634e487b7160e01b600052604160045260246000fd5b60405190808252806020026020018201604052801561063a578160200160208202803683370190505b509050600060015b6006548110156106b1573361065682610702565b6001600160a01b0316141561069f578083838151811061068657634e487b7160e01b600052603260045260246000fd5b60209081029190910101528161069b816115a8565b9250505b806106a9816115a8565b915050610642565b505090565b6106c03382610a43565b6106dc5760405162461bcd60e51b81526004016104a5906114ad565b6105db838383610b3a565b6105db8383836040518060200160405280600081525061081e565b6000818152600260205260408120546001600160a01b0316806103985760405162461bcd60e51b815260206004820152602960248201527f4552433732313a206f776e657220717565727920666f72206e6f6e657869737460448201526832b73a103a37b5b2b760b91b60648201526084016104a5565b60006001600160a01b0382166107e45760405162461bcd60e51b815260206004820152602a60248201527f4552433732313a2062616c616e636520717565727920666f7220746865207a65604482015269726f206164647265737360b01b60648201526084016104a5565b506001600160a01b031660009081526003602052604090205490565b6060600180546103ad9061156d565b61081a338383610cd6565b5050565b6108283383610a43565b6108445760405162461bcd60e51b81526004016104a5906114ad565b61085084848484610da5565b50505050565b6000346706f05b59d3b200001461086c57600080fd5b60068054908190600061087e836115a8565b919050555061088d3382610dd8565b6008546108cf6040805144602082015242918101919091524360608201526000906080016040516020818303038152906040528051906020012060001c905090565b6108d991906115c3565b600082815260076020526040902055919050565b6000818152600260205260409020546060906001600160a01b031661096c5760405162461bcd60e51b815260206004820152602f60248201527f4552433732314d657461646174613a2055524920717565727920666f72206e6f60448201526e3732bc34b9ba32b73a103a37b5b2b760891b60648201526084016104a5565b600061098360408051602081019091526000815290565b905060008151116109a357604051806020016040528060008152506109ce565b806109ad84610f1a565b6040516020016109be929190611398565b6040516020818303038152906040525b9392505050565b600081815260046020526040902080546001600160a01b0319166001600160a01b0384169081179091558190610a0a82610702565b6001600160a01b03167f8c5be1e5ebec7d5bd14f71427d1e84f3dd0314c0f7b2291e5b200ac8c7c3b92560405160405180910390a45050565b6000818152600260205260408120546001600160a01b0316610abc5760405162461bcd60e51b815260206004820152602c60248201527f4552433732313a206f70657261746f7220717565727920666f72206e6f6e657860448201526b34b9ba32b73a103a37b5b2b760a11b60648201526084016104a5565b6000610ac783610702565b9050806001600160a01b0316846001600160a01b03161480610b025750836001600160a01b0316610af784610430565b6001600160a01b0316145b80610b3257506001600160a01b0380821660009081526005602090815260408083209388168352929052205460ff165b949350505050565b826001600160a01b0316610b4d82610702565b6001600160a01b031614610bb15760405162461bcd60e51b815260206004820152602560248201527f4552433732313a207472616e736665722066726f6d20696e636f72726563742060448201526437bbb732b960d91b60648201526084016104a5565b6001600160a01b038216610c135760405162461bcd60e51b8152602060048201526024808201527f4552433732313a207472616e7366657220746f20746865207a65726f206164646044820152637265737360e01b60648201526084016104a5565b610c1e6000826109d5565b6001600160a01b0383166000908152600360205260408120805460019290610c4790849061152a565b90915550506001600160a01b0382166000908152600360205260408120805460019290610c759084906114fe565b909155505060008181526002602052604080822080546001600160a01b0319166001600160a01b0386811691821790925591518493918716917fddf252ad1be2c89b69c2b068fc378daa952ba7f163c4a11628f55a4df523b3ef91a4505050565b816001600160a01b0316836001600160a01b03161415610d385760405162461bcd60e51b815260206004820152601960248201527f4552433732313a20617070726f766520746f2063616c6c65720000000000000060448201526064016104a5565b6001600160a01b03838116600081815260056020908152604080832094871680845294825291829020805460ff191686151590811790915591519182527f17307eab39ab6107e8899845ad3d59bd9653f200f220920489ca2b5937696c31910160405180910390a3505050565b610db0848484610b3a565b610dbc84848484611034565b6108505760405162461bcd60e51b81526004016104a59061145b565b6001600160a01b038216610e2e5760405162461bcd60e51b815260206004820181905260248201527f4552433732313a206d696e7420746f20746865207a65726f206164647265737360448201526064016104a5565b6000818152600260205260409020546001600160a01b031615610e935760405162461bcd60e51b815260206004820152601c60248201527f4552433732313a20746f6b656e20616c7265616479206d696e7465640000000060448201526064016104a5565b6001600160a01b0382166000908152600360205260408120805460019290610ebc9084906114fe565b909155505060008181526002602052604080822080546001600160a01b0319166001600160a01b03861690811790915590518392907fddf252ad1be2c89b69c2b068fc378daa952ba7f163c4a11628f55a4df523b3ef908290a45050565b606081610f3e5750506040805180820190915260018152600360fc1b602082015290565b8160005b8115610f685780610f52816115a8565b9150610f619050600a83611516565b9150610f42565b60008167ffffffffffffffff811115610f9157634e487b7160e01b600052604160045260246000fd5b6040519080825280601f01601f191660200182016040528015610fbb576020820181803683370190505b5090505b8415610b3257610fd060018361152a565b9150610fdd600a866115c3565b610fe89060306114fe565b60f81b81838151811061100b57634e487b7160e01b600052603260045260246000fd5b60200101906001600160f81b031916908160001a90535061102d600a86611516565b9450610fbf565b60006001600160a01b0384163b1561113657604051630a85bd0160e11b81526001600160a01b0385169063150b7a02906110789033908990889088906004016113c7565b602060405180830381600087803b15801561109257600080fd5b505af19250505080156110c2575060408051601f3d908101601f191682019092526110bf91810190611338565b60015b61111c573d8080156110f0576040519150601f19603f3d011682016040523d82523d6000602084013e6110f5565b606091505b5080516111145760405162461bcd60e51b81526004016104a59061145b565b805181602001fd5b6001600160e01b031916630a85bd0160e11b149050610b32565b506001949350505050565b80356001600160a01b038116811461115857600080fd5b919050565b60006020828403121561116e578081fd5b6109ce82611141565b60008060408385031215611189578081fd5b61119283611141565b91506111a060208401611141565b90509250929050565b6000806000606084860312156111bd578081fd5b6111c684611141565b92506111d460208501611141565b9150604084013590509250925092565b600080600080608085870312156111f9578081fd5b61120285611141565b935061121060208601611141565b925060408501359150606085013567ffffffffffffffff80821115611233578283fd5b818701915087601f830112611246578283fd5b81358181111561125857611258611603565b604051601f8201601f19908116603f0116810190838211818310171561128057611280611603565b816040528281528a6020848701011115611298578586fd5b82602086016020830137918201602001949094529598949750929550505050565b600080604083850312156112cb578182fd5b6112d483611141565b9150602083013580151581146112e8578182fd5b809150509250929050565b60008060408385031215611305578182fd5b61130e83611141565b946020939093013593505050565b60006020828403121561132d578081fd5b81356109ce81611619565b600060208284031215611349578081fd5b81516109ce81611619565b600060208284031215611365578081fd5b5035919050565b60008151808452611384816020860160208601611541565b601f01601f19169290920160200192915050565b600083516113aa818460208801611541565b8351908301906113be818360208801611541565b01949350505050565b6001600160a01b03858116825284166020820152604081018390526080606082018190526000906113fa9083018461136c565b9695505050505050565b6020808252825182820181905260009190848201906040850190845b8181101561143c57835183529284019291840191600101611420565b50909695505050505050565b6020815260006109ce602083018461136c565b60208082526032908201527f4552433732313a207472616e7366657220746f206e6f6e20455243373231526560408201527131b2b4bb32b91034b6b83632b6b2b73a32b960711b606082015260800190565b60208082526031908201527f4552433732313a207472616e736665722063616c6c6572206973206e6f74206f6040820152701ddb995c881b9bdc88185c1c1c9bdd9959607a1b606082015260800190565b60008219821115611511576115116115d7565b500190565b600082611525576115256115ed565b500490565b60008282101561153c5761153c6115d7565b500390565b60005b8381101561155c578181015183820152602001611544565b838111156108505750506000910152565b600181811c9082168061158157607f821691505b602082108114156115a257634e487b7160e01b600052602260045260246000fd5b50919050565b60006000198214156115bc576115bc6115d7565b5060010190565b6000826115d2576115d26115ed565b500690565b634e487b7160e01b600052601160045260246000fd5b634e487b7160e01b600052601260045260246000fd5b634e487b7160e01b600052604160045260246000fd5b6001600160e01b03198116811461162f57600080fd5b5056fea2646970667358221220f9775b37ff9ce4f71c3bdb4a7da284a8b3a7d9d0899defedefac40e3df1e54e464736f6c63430008040033",
  "linkReferences": {},
  "deployedLinkReferences": {}
}